{
  "contractName": "SimpleCrowdsale",
  "abi": [
    {
      "inputs": [
        {
          "internalType": "uint256",
          "name": "_duration",
          "type": "uint256"
        },
        {
          "internalType": "uint256",
          "name": "_weiTokenPrice",
          "type": "uint256"
        },
        {
          "internalType": "uint256",
          "name": "_etherInvestmentObjective",
          "type": "uint256"
        }
      ],
      "payable": false,
      "stateMutability": "nonpayable",
      "type": "constructor"
    },
    {
      "anonymous": false,
      "inputs": [
        {
          "indexed": false,
          "internalType": "address",
          "name": "investor",
          "type": "address"
        },
        {
          "indexed": false,
          "internalType": "uint256",
          "name": "value",
          "type": "uint256"
        }
      ],
      "name": "LogInvestment",
      "type": "event"
    },
    {
      "anonymous": false,
      "inputs": [
        {
          "indexed": true,
          "internalType": "address",
          "name": "investor",
          "type": "address"
        },
        {
          "indexed": false,
          "internalType": "uint256",
          "name": "numTokens",
          "type": "uint256"
        }
      ],
      "name": "LogTokenAssignment",
      "type": "event"
    },
    {
      "anonymous": false,
      "inputs": [
        {
          "indexed": false,
          "internalType": "address",
          "name": "investor",
          "type": "address"
        },
        {
          "indexed": false,
          "internalType": "uint256",
          "name": "value",
          "type": "uint256"
        }
      ],
      "name": "Refund",
      "type": "event"
    },
    {
      "constant": true,
      "inputs": [],
      "name": "crowdsaleToken",
      "outputs": [
        {
          "internalType": "contract ReleasableCoin",
          "name": "",
          "type": "address"
        }
      ],
      "payable": false,
      "stateMutability": "view",
      "type": "function"
    },
    {
      "constant": false,
      "inputs": [
        {
          "internalType": "address payable",
          "name": "_recipient",
          "type": "address"
        }
      ],
      "name": "destroyAndSend",
      "outputs": [],
      "payable": false,
      "stateMutability": "nonpayable",
      "type": "function"
    },
    {
      "constant": true,
      "inputs": [],
      "name": "endTime",
      "outputs": [
        {
          "internalType": "uint256",
          "name": "",
          "type": "uint256"
        }
      ],
      "payable": false,
      "stateMutability": "view",
      "type": "function"
    },
    {
      "constant": true,
      "inputs": [
        {
          "internalType": "address",
          "name": "",
          "type": "address"
        }
      ],
      "name": "investmentAmountOf",
      "outputs": [
        {
          "internalType": "uint256",
          "name": "",
          "type": "uint256"
        }
      ],
      "payable": false,
      "stateMutability": "view",
      "type": "function"
    },
    {
      "constant": true,
      "inputs": [],
      "name": "investmentReceived",
      "outputs": [
        {
          "internalType": "uint256",
          "name": "",
          "type": "uint256"
        }
      ],
      "payable": false,
      "stateMutability": "view",
      "type": "function"
    },
    {
      "constant": true,
      "inputs": [],
      "name": "investmentRefunded",
      "outputs": [
        {
          "internalType": "uint256",
          "name": "",
          "type": "uint256"
        }
      ],
      "payable": false,
      "stateMutability": "view",
      "type": "function"
    },
    {
      "constant": true,
      "inputs": [],
      "name": "isFinalized",
      "outputs": [
        {
          "internalType": "bool",
          "name": "",
          "type": "bool"
        }
      ],
      "payable": false,
      "stateMutability": "view",
      "type": "function"
    },
    {
      "constant": true,
      "inputs": [],
      "name": "isRefundingAllowed",
      "outputs": [
        {
          "internalType": "bool",
          "name": "",
          "type": "bool"
        }
      ],
      "payable": false,
      "stateMutability": "view",
      "type": "function"
    },
    {
      "constant": true,
      "inputs": [],
      "name": "owner",
      "outputs": [
        {
          "internalType": "address",
          "name": "",
          "type": "address"
        }
      ],
      "payable": false,
      "stateMutability": "view",
      "type": "function"
    },
    {
      "constant": false,
      "inputs": [],
      "name": "pause",
      "outputs": [],
      "payable": false,
      "stateMutability": "nonpayable",
      "type": "function"
    },
    {
      "constant": true,
      "inputs": [],
      "name": "paused",
      "outputs": [
        {
          "internalType": "bool",
          "name": "",
          "type": "bool"
        }
      ],
      "payable": false,
      "stateMutability": "view",
      "type": "function"
    },
    {
      "constant": true,
      "inputs": [],
      "name": "startTime",
      "outputs": [
        {
          "internalType": "uint256",
          "name": "",
          "type": "uint256"
        }
      ],
      "payable": false,
      "stateMutability": "view",
      "type": "function"
    },
    {
      "constant": false,
      "inputs": [],
      "name": "unpause",
      "outputs": [],
      "payable": false,
      "stateMutability": "nonpayable",
      "type": "function"
    },
    {
      "constant": true,
      "inputs": [],
      "name": "weiInvestmentObjective",
      "outputs": [
        {
          "internalType": "uint256",
          "name": "",
          "type": "uint256"
        }
      ],
      "payable": false,
      "stateMutability": "view",
      "type": "function"
    },
    {
      "constant": true,
      "inputs": [],
      "name": "weiTokenPrice",
      "outputs": [
        {
          "internalType": "uint256",
          "name": "",
          "type": "uint256"
        }
      ],
      "payable": false,
      "stateMutability": "view",
      "type": "function"
    },
    {
      "constant": false,
      "inputs": [],
      "name": "invest",
      "outputs": [],
      "payable": true,
      "stateMutability": "payable",
      "type": "function"
    },
    {
      "constant": false,
      "inputs": [],
      "name": "finalize",
      "outputs": [],
      "payable": false,
      "stateMutability": "nonpayable",
      "type": "function"
    },
    {
      "constant": false,
      "inputs": [],
      "name": "refund",
      "outputs": [],
      "payable": false,
      "stateMutability": "nonpayable",
      "type": "function"
    }
  ],
  "bytecode": "0x608060405260008060146101000a81548160ff02191690831515021790555034801561002a57600080fd5b506040516121713803806121718339818101604052606081101561004d57600080fd5b81019080805190602001909291908051906020019092919080519060200190929190505050336000806101000a81548173ffffffffffffffffffffffffffffffffffffffff021916908373ffffffffffffffffffffffffffffffffffffffff16021790555060008214156100c057600080fd5b60008114156100ce57600080fd5b4260018190555082420160028190555081600381905550670de0b6b3a764000081026004819055506000604051610104906101e9565b80828152602001915050604051809103906000f08015801561012a573d6000803e3d6000fd5b50600860026101000a81548173ffffffffffffffffffffffffffffffffffffffff021916908373ffffffffffffffffffffffffffffffffffffffff1602179055506000600860006101000a81548160ff0219169083151502179055506000600860016101000a81548160ff021916908315150217905550336000806101000a81548173ffffffffffffffffffffffffffffffffffffffff021916908373ffffffffffffffffffffffffffffffffffffffff1602179055505050506101f6565b6112f780610e7a83390190565b610c75806102056000396000f3fe6080604052600436106101095760003560e01c80638d4e408311610095578063cb6f16d411610064578063cb6f16d41461035b578063e8b5e51f1461038a578063ee56cf4114610394578063f5074f41146103bf578063fa65dfac1461041057610109565b80638d4e4083146102455780638da5cb5b14610274578063912e704e146102cb578063bab34f431461033057610109565b80634bb278f3116100dc5780634bb278f3146101a6578063590e1ae3146101bd5780635c975abb146101d457806378e97925146102035780638456cb591461022e57610109565b80631c0a5c101461010e5780633197cbb61461013957806338ef9380146101645780633f4ba83a1461018f575b600080fd5b34801561011a57600080fd5b50610123610467565b6040518082815260200191505060405180910390f35b34801561014557600080fd5b5061014e61046d565b6040518082815260200191505060405180910390f35b34801561017057600080fd5b50610179610473565b6040518082815260200191505060405180910390f35b34801561019b57600080fd5b506101a4610479565b005b3480156101b257600080fd5b506101bb610507565b005b3480156101c957600080fd5b506101d2610686565b005b3480156101e057600080fd5b506101e961081b565b604051808215151515815260200191505060405180910390f35b34801561020f57600080fd5b5061021861082e565b6040518082815260200191505060405180910390f35b34801561023a57600080fd5b50610243610834565b005b34801561025157600080fd5b5061025a6108c4565b604051808215151515815260200191505060405180910390f35b34801561028057600080fd5b506102896108d7565b604051808273ffffffffffffffffffffffffffffffffffffffff1673ffffffffffffffffffffffffffffffffffffffff16815260200191505060405180910390f35b3480156102d757600080fd5b5061031a600480360360208110156102ee57600080fd5b81019080803573ffffffffffffffffffffffffffffffffffffffff1690602001909291905050506108fc565b6040518082815260200191505060405180910390f35b34801561033c57600080fd5b50610345610914565b6040518082815260200191505060405180910390f35b34801561036757600080fd5b5061037061091a565b604051808215151515815260200191505060405180910390f35b61039261092d565b005b3480156103a057600080fd5b506103a9610a39565b6040518082815260200191505060405180910390f35b3480156103cb57600080fd5b5061040e600480360360208110156103e257600080fd5b81019080803573ffffffffffffffffffffffffffffffffffffffff169060200190929190505050610a3f565b005b34801561041c57600080fd5b50610425610ab1565b604051808273ffffffffffffffffffffffffffffffffffffffff1673ffffffffffffffffffffffffffffffffffffffff16815260200191505060405180910390f35b60065481565b60025481565b60075481565b6000809054906101000a900473ffffffffffffffffffffffffffffffffffffffff1673ffffffffffffffffffffffffffffffffffffffff163373ffffffffffffffffffffffffffffffffffffffff16146104d257600080fd5b600060149054906101000a900460ff166104eb57600080fd5b60008060146101000a81548160ff021916908315150217905550565b6000809054906101000a900473ffffffffffffffffffffffffffffffffffffffff1673ffffffffffffffffffffffffffffffffffffffff163373ffffffffffffffffffffffffffffffffffffffff161461056057600080fd5b600060149054906101000a900460ff161561057a57600080fd5b600860009054906101000a900460ff161561059457600080fd5b60025442116105a257600080fd5b600060025442119050600060045460065410159050811561068257801561064a57600860029054906101000a900473ffffffffffffffffffffffffffffffffffffffff1673ffffffffffffffffffffffffffffffffffffffff166386d1a69f6040518163ffffffff1660e01b8152600401600060405180830381600087803b15801561062d57600080fd5b505af1158015610641573d6000803e3d6000fd5b50505050610666565b6001600860016101000a81548160ff0219169083151502179055505b6001600860006101000a81548160ff0219169083151502179055505b5050565b600060149054906101000a900460ff16156106a057600080fd5b600860019054906101000a900460ff166106b957600080fd5b60003390506000600560008373ffffffffffffffffffffffffffffffffffffffff1673ffffffffffffffffffffffffffffffffffffffff168152602001908152602001600020549050600081141561071057600080fd5b6000600560008473ffffffffffffffffffffffffffffffffffffffff1673ffffffffffffffffffffffffffffffffffffffff16815260200190815260200160002081905550806007600082825401925050819055507fbb28353e4598c3b9199101a66e0989549b659a59a54d2c27fbb183f1932c8e6d8282604051808373ffffffffffffffffffffffffffffffffffffffff1673ffffffffffffffffffffffffffffffffffffffff1681526020018281526020019250505060405180910390a18173ffffffffffffffffffffffffffffffffffffffff166108fc829081150290604051600060405180830381858888f19350505050158015610816573d6000803e3d6000fd5b505050565b600060149054906101000a900460ff1681565b60015481565b6000809054906101000a900473ffffffffffffffffffffffffffffffffffffffff1673ffffffffffffffffffffffffffffffffffffffff163373ffffffffffffffffffffffffffffffffffffffff161461088d57600080fd5b600060149054906101000a900460ff16156108a757600080fd5b6001600060146101000a81548160ff021916908315150217905550565b600860009054906101000a900460ff1681565b6000809054906101000a900473ffffffffffffffffffffffffffffffffffffffff1681565b60056020528060005260406000206000915090505481565b60045481565b600860019054906101000a900460ff1681565b600060149054906101000a900460ff161561094757600080fd5b61095034610ad7565b61095957600080fd5b6000339050600034905080600560008473ffffffffffffffffffffffffffffffffffffffff1673ffffffffffffffffffffffffffffffffffffffff16815260200190815260200160002060008282540192505081905550806006600082825401925050819055506109ca8282610b25565b7fc74590e3281392e897f5c0f45530951cfe0db0e86c76d65af861e80b925871a48282604051808373ffffffffffffffffffffffffffffffffffffffff1673ffffffffffffffffffffffffffffffffffffffff1681526020018281526020019250505060405180910390a15050565b60035481565b6000809054906101000a900473ffffffffffffffffffffffffffffffffffffffff1673ffffffffffffffffffffffffffffffffffffffff163373ffffffffffffffffffffffffffffffffffffffff1614610a9857600080fd5b8073ffffffffffffffffffffffffffffffffffffffff16ff5b600860029054906101000a900473ffffffffffffffffffffffffffffffffffffffff1681565b60008060149054906101000a900460ff1615610af257600080fd5b600080831415905060006001544210158015610b1057506002544211155b9050818015610b1c5750805b92505050919050565b600060149054906101000a900460ff1615610b3f57600080fd5b6000610b4a82610c12565b9050600860029054906101000a900473ffffffffffffffffffffffffffffffffffffffff1673ffffffffffffffffffffffffffffffffffffffff166340c10f1984836040518363ffffffff1660e01b8152600401808373ffffffffffffffffffffffffffffffffffffffff1673ffffffffffffffffffffffffffffffffffffffff16815260200182815260200192505050600060405180830381600087803b158015610bf557600080fd5b505af1158015610c09573d6000803e3d6000fd5b50505050505050565b60008060149054906101000a900460ff1615610c2d57600080fd5b6003548281610c3857fe5b04905091905056fea265627a7a72315820596938fe3724fd429f01dddd944c02c03db563812620faec3fe220d3c508134a64736f6c6343000510003260806040526000600460146101000a81548160ff0219169083151502179055506000600460156101000a81548160ff02191690831515021790555034801561004657600080fd5b506040516112f73803806112f78339818101604052602081101561006957600080fd5b810190808051906020019092919050505080336000806101000a81548173ffffffffffffffffffffffffffffffffffffffff021916908373ffffffffffffffffffffffffffffffffffffffff16021790555033600460006101000a81548173ffffffffffffffffffffffffffffffffffffffff021916908373ffffffffffffffffffffffffffffffffffffffff16021790555061012e600460009054906101000a900473ffffffffffffffffffffffffffffffffffffffff168261013560201b60201c565b5050610266565b6000809054906101000a900473ffffffffffffffffffffffffffffffffffffffff1673ffffffffffffffffffffffffffffffffffffffff163373ffffffffffffffffffffffffffffffffffffffff161461018e57600080fd5b80600160008473ffffffffffffffffffffffffffffffffffffffff1673ffffffffffffffffffffffffffffffffffffffff168152602001908152602001600020600082825401925050819055508173ffffffffffffffffffffffffffffffffffffffff16600460009054906101000a900473ffffffffffffffffffffffffffffffffffffffff1673ffffffffffffffffffffffffffffffffffffffff167fddf252ad1be2c89b69c2b068fc378daa952ba7f163c4a11628f55a4df523b3ef836040518082815260200191505060405180910390a35050565b611082806102756000396000f3fe608060405234801561001057600080fd5b50600436106100f55760003560e01c80639613252111610097578063dd62ed3e11610066578063dd62ed3e1461038a578063e724529c14610402578063f5074f4114610452578063fabde80c14610496576100f5565b80639613252114610258578063a9059cbb1461027a578063b414d4b6146102c8578063c1dbd9b214610324576100f5565b80635c975abb116100d35780635c975abb146101d85780638456cb59146101fa57806386d1a69f146102045780638da5cb5b1461020e576100f5565b806323b872dd146100fa5780633f4ba83a1461018057806340c10f191461018a575b600080fd5b6101666004803603606081101561011057600080fd5b81019080803573ffffffffffffffffffffffffffffffffffffffff169060200190929190803573ffffffffffffffffffffffffffffffffffffffff169060200190929190803590602001909291905050506104ee565b604051808215151515815260200191505060405180910390f35b610188610536565b005b6101d6600480360360408110156101a057600080fd5b81019080803573ffffffffffffffffffffffffffffffffffffffff169060200190929190803590602001909291905050506105c5565b005b6101e06106f6565b604051808215151515815260200191505060405180910390f35b610202610709565b005b61020c610799565b005b61021661080f565b604051808273ffffffffffffffffffffffffffffffffffffffff1673ffffffffffffffffffffffffffffffffffffffff16815260200191505060405180910390f35b610260610835565b604051808215151515815260200191505060405180910390f35b6102c66004803603604081101561029057600080fd5b81019080803573ffffffffffffffffffffffffffffffffffffffff16906020019092919080359060200190929190505050610848565b005b61030a600480360360208110156102de57600080fd5b81019080803573ffffffffffffffffffffffffffffffffffffffff169060200190929190505050610889565b604051808215151515815260200191505060405180910390f35b6103706004803603604081101561033a57600080fd5b81019080803573ffffffffffffffffffffffffffffffffffffffff169060200190929190803590602001909291905050506108a9565b604051808215151515815260200191505060405180910390f35b6103ec600480360360408110156103a057600080fd5b81019080803573ffffffffffffffffffffffffffffffffffffffff169060200190929190803573ffffffffffffffffffffffffffffffffffffffff169060200190929190505050610936565b6040518082815260200191505060405180910390f35b6104506004803603604081101561041857600080fd5b81019080803573ffffffffffffffffffffffffffffffffffffffff16906020019092919080351515906020019092919050505061095b565b005b6104946004803603602081101561046857600080fd5b81019080803573ffffffffffffffffffffffffffffffffffffffff169060200190929190505050610a7e565b005b6104d8600480360360208110156104ac57600080fd5b81019080803573ffffffffffffffffffffffffffffffffffffffff169060200190929190505050610af0565b6040518082815260200191505060405180910390f35b6000600460159054906101000a900460ff1661050957600080fd5b600460149054906101000a900460ff161561052357600080fd5b61052e848484610b08565b509392505050565b6000809054906101000a900473ffffffffffffffffffffffffffffffffffffffff1673ffffffffffffffffffffffffffffffffffffffff163373ffffffffffffffffffffffffffffffffffffffff161461058f57600080fd5b600460149054906101000a900460ff166105a857600080fd5b6000600460146101000a81548160ff021916908315150217905550565b6000809054906101000a900473ffffffffffffffffffffffffffffffffffffffff1673ffffffffffffffffffffffffffffffffffffffff163373ffffffffffffffffffffffffffffffffffffffff161461061e57600080fd5b80600160008473ffffffffffffffffffffffffffffffffffffffff1673ffffffffffffffffffffffffffffffffffffffff168152602001908152602001600020600082825401925050819055508173ffffffffffffffffffffffffffffffffffffffff16600460009054906101000a900473ffffffffffffffffffffffffffffffffffffffff1673ffffffffffffffffffffffffffffffffffffffff167fddf252ad1be2c89b69c2b068fc378daa952ba7f163c4a11628f55a4df523b3ef836040518082815260200191505060405180910390a35050565b600460149054906101000a900460ff1681565b6000809054906101000a900473ffffffffffffffffffffffffffffffffffffffff1673ffffffffffffffffffffffffffffffffffffffff163373ffffffffffffffffffffffffffffffffffffffff161461076257600080fd5b600460149054906101000a900460ff161561077c57600080fd5b6001600460146101000a81548160ff021916908315150217905550565b6000809054906101000a900473ffffffffffffffffffffffffffffffffffffffff1673ffffffffffffffffffffffffffffffffffffffff163373ffffffffffffffffffffffffffffffffffffffff16146107f257600080fd5b6001600460156101000a81548160ff021916908315150217905550565b600460009054906101000a900473ffffffffffffffffffffffffffffffffffffffff1681565b600460159054906101000a900460ff1681565b600460159054906101000a900460ff1661086157600080fd5b600460149054906101000a900460ff161561087b57600080fd5b6108858282610e38565b5050565b60036020528060005260406000206000915054906101000a900460ff1681565b600081600260003373ffffffffffffffffffffffffffffffffffffffff1673ffffffffffffffffffffffffffffffffffffffff16815260200190815260200160002060008573ffffffffffffffffffffffffffffffffffffffff1673ffffffffffffffffffffffffffffffffffffffff168152602001908152602001600020819055506001905092915050565b6002602052816000526040600020602052806000526040600020600091509150505481565b6000809054906101000a900473ffffffffffffffffffffffffffffffffffffffff1673ffffffffffffffffffffffffffffffffffffffff163373ffffffffffffffffffffffffffffffffffffffff16146109b457600080fd5b80600360008473ffffffffffffffffffffffffffffffffffffffff1673ffffffffffffffffffffffffffffffffffffffff16815260200190815260200160002060006101000a81548160ff0219169083151502179055507f67a17b8db8ff8fa7cff69c2328bf8a35f9be2c88abeea30be900fc28eece28ed8282604051808373ffffffffffffffffffffffffffffffffffffffff1673ffffffffffffffffffffffffffffffffffffffff168152602001821515151581526020019250505060405180910390a15050565b6000809054906101000a900473ffffffffffffffffffffffffffffffffffffffff1673ffffffffffffffffffffffffffffffffffffffff163373ffffffffffffffffffffffffffffffffffffffff1614610ad757600080fd5b8073ffffffffffffffffffffffffffffffffffffffff16ff5b60016020528060005260406000206000915090505481565b60008073ffffffffffffffffffffffffffffffffffffffff168373ffffffffffffffffffffffffffffffffffffffff161415610b4357600080fd5b81600160008673ffffffffffffffffffffffffffffffffffffffff1673ffffffffffffffffffffffffffffffffffffffff1681526020019081526020016000205411610b8e57600080fd5b600160008473ffffffffffffffffffffffffffffffffffffffff1673ffffffffffffffffffffffffffffffffffffffff1681526020019081526020016000205482600160008673ffffffffffffffffffffffffffffffffffffffff1673ffffffffffffffffffffffffffffffffffffffff16815260200190815260200160002054011015610c1b57600080fd5b600260008573ffffffffffffffffffffffffffffffffffffffff1673ffffffffffffffffffffffffffffffffffffffff16815260200190815260200160002060003373ffffffffffffffffffffffffffffffffffffffff1673ffffffffffffffffffffffffffffffffffffffff16815260200190815260200160002054821115610ca457600080fd5b81600160008673ffffffffffffffffffffffffffffffffffffffff1673ffffffffffffffffffffffffffffffffffffffff1681526020019081526020016000206000828254039250508190555081600160008573ffffffffffffffffffffffffffffffffffffffff1673ffffffffffffffffffffffffffffffffffffffff1681526020019081526020016000206000828254019250508190555081600260008673ffffffffffffffffffffffffffffffffffffffff1673ffffffffffffffffffffffffffffffffffffffff16815260200190815260200160002060003373ffffffffffffffffffffffffffffffffffffffff1673ffffffffffffffffffffffffffffffffffffffff168152602001908152602001600020600082825403925050819055508273ffffffffffffffffffffffffffffffffffffffff168473ffffffffffffffffffffffffffffffffffffffff167fddf252ad1be2c89b69c2b068fc378daa952ba7f163c4a11628f55a4df523b3ef846040518082815260200191505060405180910390a3600190509392505050565b600073ffffffffffffffffffffffffffffffffffffffff168273ffffffffffffffffffffffffffffffffffffffff161415610e7257600080fd5b80600160003373ffffffffffffffffffffffffffffffffffffffff1673ffffffffffffffffffffffffffffffffffffffff1681526020019081526020016000205411610ebd57600080fd5b600160008373ffffffffffffffffffffffffffffffffffffffff1673ffffffffffffffffffffffffffffffffffffffff1681526020019081526020016000205481600160008573ffffffffffffffffffffffffffffffffffffffff1673ffffffffffffffffffffffffffffffffffffffff16815260200190815260200160002054011015610f4a57600080fd5b80600160003373ffffffffffffffffffffffffffffffffffffffff1673ffffffffffffffffffffffffffffffffffffffff1681526020019081526020016000206000828254039250508190555080600160008473ffffffffffffffffffffffffffffffffffffffff1673ffffffffffffffffffffffffffffffffffffffff168152602001908152602001600020600082825401925050819055508173ffffffffffffffffffffffffffffffffffffffff163373ffffffffffffffffffffffffffffffffffffffff167fddf252ad1be2c89b69c2b068fc378daa952ba7f163c4a11628f55a4df523b3ef836040518082815260200191505060405180910390a3505056fea265627a7a72315820a944ba8be6bd5ffd72de25909f3e4dfee6ea2adbb9ab6face3f8e4c9214e855864736f6c63430005100032",
  "source": "// SPDX-License-Identifier: MIT\npragma solidity >=0.4.22 <0.9.0;\n\nimport \"./ReleasableCoin.sol\";\nimport \"./Ownable.sol\";\nimport \"./Pausable.sol\";\nimport \"./Destructible.sol\";\n\ncontract SimpleCrowdsale is Ownable, Pausable, Destructible {\n    uint256 public startTime;\n    uint256 public endTime;\n    uint256 public weiTokenPrice;\n    uint256 public weiInvestmentObjective;\n\n    mapping(address => uint256) public investmentAmountOf;\n\n    uint256 public investmentReceived;\n    uint256 public investmentRefunded;\n\n    bool public isFinalized;\n    bool public isRefundingAllowed;\n\n    ReleasableCoin public crowdsaleToken;\n\n    constructor(\n        uint256 _duration,\n        uint256 _weiTokenPrice,\n        uint256 _etherInvestmentObjective\n    ) public {\n        // require(_startTime >= now);\n        // require(_endTime >= _startTime);\n        require(_weiTokenPrice != 0);\n        require(_etherInvestmentObjective != 0);\n\n        startTime = now;\n        endTime = now + _duration;\n        weiTokenPrice = _weiTokenPrice;\n        weiInvestmentObjective = _etherInvestmentObjective * (10**18);\n\n        crowdsaleToken = new ReleasableCoin(0);\n\n        isFinalized = false;\n        isRefundingAllowed = false;\n        owner = msg.sender;\n    }\n\n    event LogInvestment(address investor, uint256 value);\n    event LogTokenAssignment(address indexed investor, uint256 numTokens);\n\n    function invest() public payable whenNotPaused {\n        require(isValidInvestment(msg.value));\n\n        address investor = msg.sender;\n        uint256 investment = msg.value;\n\n        investmentAmountOf[investor] += investment;\n        investmentReceived += investment;\n\n        assignTokens(investor, investment);\n        emit LogInvestment(investor, investment);\n    }\n\n    function isValidInvestment(uint256 _investment)\n        internal\n        view\n        whenNotPaused\n        returns (bool)\n    {\n        bool nonZeroInvestment = _investment != 0;\n        bool withinCrowdsalePeriod = now >= startTime && now <= endTime;\n\n        return nonZeroInvestment && withinCrowdsalePeriod;\n    }\n\n    function assignTokens(address _beneficiary, uint256 _investment)\n        internal\n        whenNotPaused\n    {\n        uint256 _numberOfTokens = calculateNumberOfTokens(_investment);\n\n        crowdsaleToken.mint(_beneficiary, _numberOfTokens);\n    }\n\n    function calculateNumberOfTokens(uint256 _investment)\n        internal\n        view\n        whenNotPaused\n        returns (uint256)\n    {\n        return _investment / weiTokenPrice;\n    }\n\n    function finalize() public onlyOwner whenNotPaused {\n        require(!isFinalized);\n        require(now > endTime);\n\n        bool isCrowdSalecomplete = now > endTime;\n\n        bool investmentObjMet = investmentReceived >= weiInvestmentObjective;\n\n        if (isCrowdSalecomplete) {\n            if (investmentObjMet) {\n                crowdsaleToken.release();\n            } else {\n                isRefundingAllowed = true;\n            }\n            isFinalized = true;\n        }\n    }\n\n    event Refund(address investor, uint256 value);\n\n    function refund() public whenNotPaused {\n        require(isRefundingAllowed);\n\n        address payable investor = msg.sender;\n        uint256 investment = investmentAmountOf[investor];\n        if (investment == 0) revert();\n\n        investmentAmountOf[investor] = 0;\n        investmentRefunded += investment;\n\n        emit Refund(investor, investment);\n\n        investor.transfer(investment); // handles if there was error sending money to the investor\n    }\n}\n",
  "sourcePath": "D:/Porgrams/Blockchain/crowdsale/contracts/SimpleCrowdsale.sol",
  "compiler": {
    "name": "solc",
    "version": "0.5.16+commit.9c3226ce.Emscripten.clang"
  },
  "schemaVersion": "3.4.1",
  "updatedAt": "2021-06-05T07:46:19.146Z",
  "networkType": "ethereum",
  "devdoc": {
    "methods": {}
  },
  "userdoc": {
    "methods": {}
  }
}